:200000000C9447000C9476000C9476000C9476000C9476000C9476000C9476000C9476005F
:200020000C9476000C9476000C9476000C9476000C94860B0C94950B0C94770B0C94B30B77
:200040000C94680B0C9476000C94C20B0C94E00B0C94D10B0C9476000C9476000C947600C1
:200060000C94A40B0C9476000C9476000C9476000C9476000C9476000C9476000C94760097
:200080000C9476000C9476000C947600EF0111241FBECFEFD0E1DEBFCDBF11E0A0E0B1E082
:2000A000E2E3FCE200E00BBF02C007900D92AE38B107D9F713E0AEE8B1E001C01D92A43B24
:2000C000B107E1F710E0CEE8D0E000E006C022970109FE010BBF0E940716CC38D10780E00D
:2000E0000807A9F70E94F0030C9417160C940000CF92DF92EF92FF920F931F93CF93EDE6E2
:20010000F0E080818660808385B7806885BF88EB9BE020E931E0F9013197F1F70197D9F7A3
:20012000B89A88EB9BE020E931E0F9013197F1F70197D9F7C09888EB9BE020E931E0F901F9
:200140003197F1F70197D9F788EB9BE020E931E0F9013197F1F70197D9F7C09A88EB9BE025
:2001600020E931E0F9013197F1F70197D9F7C09888EB9BE020E931E0F9013197F1F70197B1
:20018000D9F7E0E0F0E81192EF3780E8F807D9F78FEF80937F8088EB9BE020E931E0F90165
:2001A0003197F1F70197D9F710927F801092008010920180C12CD12C760100E010E0980177
:2001C00041E050E060E070E08DE093E00E944B05E6E0F2E08081C1E08C27808300E010E0AC
:2001E00098014EEE52E060E070E081EF92E00E944B0548EE53E060E070E081EF92E00E9417
:20020000990549E050E060E070E081EF92E00E94BA0545E050E060E070E084E992E00E94AE
:200220004D0401E010E020E030E041E050E060E070E081E692E00E94290701E010E020E02F
:2002400030E041E050E060E070E081E692E00E946007E5EFF1E08081C827C08300E010E023
:20026000980140E253E060E070E085ED92E00E944B0548EE53E060E070E085ED92E00E94AB
:20028000990549E050E060E070E085ED92E00E94BA0545E050E060E070E08BE892E00E9426
:2002A0004D0401E010E020E030E041E050E060E070E089E492E00E94290701E010E020E0A9
:2002C00030E041E050E060E070E089E492E00E94600700E010E0980144EF51E060E070E0E8
:2002E00089EB92E00E944B0548EE53E060E070E089EB92E00E94990548E050E060E070E01F
:2003000089EB92E00E94BA0541E050E060E070E082E892E00E944D0402E310E020E030E001
:2003200042E350E060E070E081E392E00E94290701E010E020E030E041E050E060E070E06E
:2003400081E392E00E94600700E010E0980144EF51E060E070E08DE992E00E944B0548EE51
:2003600053E060E070E08DE992E00E94990548E050E060E070E08DE992E00E94BA0541E040
:2003800050E060E070E089E792E00E944D0402E310E020E030E042E350E060E070E089E194
:2003A00092E00E94290701E010E020E030E041E050E060E070E089E192E00E946007789446
:2003C00081E0CF911F910F91FF90EF90DF90CF90089508958EE891E00E94550D08956F926D
:2003E0007F928F929F92AF92BF92CF92DF92EF92FF920F931F93CF93DF93CDB7DEB72D971F
:200400000FB6F894DEBF0FBECDBFE2E3F3E088E0DF011D928A95E9F710923A0310923B0348
:2004200010923C0310923D0380915C03811107C084E693E00E94551381E080935C0384E60C
:2004400093E090932C0380932B0380915303811107C08BE593E00E94CB1481E080935303A8
:200460008BE593E090932A0380932903C12CD12C760100E010E0980140E050E0BA018DE0C8
:2004800093E00E94DD0400E010E0980140E050E0BA0181EF92E00E94DD0400E010E0980124
:2004A00040E050E0BA0185ED92E00E94DD0400E010E0980140E050E0BA0189EB92E00E94CE
:2004C000DD0400E010E0980140E050E0BA018DE992E00E94DD0484E992E00E942A048BE83A
:2004E00092E00E942A0482E892E00E942A0489E792E00E942A0481E692E00E94EF0689E47F
:2005000092E00E94EF0681E392E00E94EF0689E192E00E94EF0668E970E88BE191E00E94CA
:20052000E90E29873A874B875C876D8785E0FE013996A4E1B2E001900D928A95E1F760EAEF
:2005400070E888E291E00E94E90E29873A874B875C876D8785E0FE013996AFE0B2E00190D0
:200560000D928A95E1F766E371E0CE0105960E94190F81E090E898878F833D812E81988583
:2005800030930B0220930C0280930D0290930E0261E471E0CE0101960E94190F80E090E8D7
:2005A0009C838B8329819A818C8120930702909308021092090280930A026DE471E086EF70
:2005C00091E00E941D0F81E692E09093F9018093F80184E992E09093FB018093FA0181EF5E
:2005E00092E09093FD018093FC011092FE011092FF0110920002109201028BE092E09093CC
:200600000302809302020F2EF4E16F2EF2E07F2EF02D7092050260920402109206026DE477
:2006200071E085EE91E00E941D0F89E492E09093E8018093E7018BE892E09093EA018093CB
:20064000E90185ED92E09093EC018093EB011092ED011092EE011092EF011092F00187E010
:2006600092E09093F2018093F1010FE012E01093F4010093F3011092F5016DE571E086EC40
:2006800091E00E94210F7092CA016092C9011093CC010093CB011092CD011092CE0110923C
:2006A000CF011092D0011092D1011092D2011092D3011092D40181E090E0A0E0B0E080932D
:2006C000D5019093D601A093D701B093D8018093D9019093DA01A093DB01B093DC01109267
:2006E000DD011092DE011092DF011092E0011092E1011092E2011092E3011092E4010F2E43
:20070000FDE96F2EF2E07F2EF02D7F926F928DE093E09F938F930F2EF9E18F2EF2E09F2E01
:20072000F02D0F2EF9EBAF2EF2E0BF2EF02D6C010F2EF1E3EF2EF2E0FF2EF02D06EC11E028
:2007400025EE31E046EF51E066E671E08AEA91E00E94750F7F926F9289E792E09F938F931F
:200760000F2EF2E8CF2EF2E0DF2EF02D25EE31E046EF51E067E771E08EE891E00E94290F7F
:200780000FB6F894DEBF0FBECDBF2D960FB6F894DEBF0FBECDBFDF91CF911F910F91FF9059
:2007A000EF90DF90CF90BF90AF909F908F907F906F900895CF93DF9300D0CDB7DEB79A838B
:2007C000898300000F900F90DF91CF910895CF93DF93CDB7DEB710923E03DF91CF91089525
:2007E000CF93DF9300D000D0CDB7DEB79A8389837C836B832B813C8189819A81B9010E946C
:20080000AC12982F81E08927882319F081E090E01AC00E947800982F81E08927882349F00D
:2008200081E090E010C00E94EA0180E090E00E94DA0380913E038823B1F70E94E9010E9468
:20084000C11280E090E00F900F900F900F90DF91CF910895CF93DF9300D0CDB7DEB79A8332
:20086000898389819A8121E0FC01208389819A81FC01118212821382148229813A8181E06C
:2008800090E0A0E0B0E0F90185839683A783B0870F900F90DF91CF910895CF93DF9300D00D
:2008A00000D000D0CDB7DEB79A8389834B835C836D837E8329813A818B819C81AD81BE81BD
:2008C000F90185839683A783B08726960FB6F894DEBF0FBECDBFDF91CF910895EF92FF921A
:2008E0000F931F93CF93DF93CDB7DEB72A970FB6F894DEBF0FBECDBF9E838D834F835887CD
:2009000069877A878D819E81FC01908181E08927882391F18D819E81FC0181819281A3810A
:20092000B4812F81388549855A8579018A01E81AF90A0A0B1B0BD801C7012D813E81F9011B
:200940002581368147815085BC01CD010E94AA1529833A834B835C832D813E818F81988501
:20096000A985BA85F90181839283A383B48389819A81AB81BC8112C08D819E81FC0110827E
:200980002D813E818F819885A985BA85F90181839283A383B48380E090E0DC01BC01CD01A8
:2009A0002A960FB6F894DEBF0FBECDBFDF91CF911F910F91FF90EF900895CF92DF92EF9212
:2009C000FF920F931F93CF93DF93CDB7DEB72E970FB6F894DEBF0FBECDBF9A8389834B8342
:2009E0005C836D837E830F83188729873A87CB86DC86ED86FE8689819A810E94CD1289812B
:200A00009A81FC01108211821282138289819A81FC01148215821682178229813A818B817F
:200A20009C81AD81BE81F90180879187A287B38729813A818F819885A985BA85F9018487AC
:200A40009587A687B78729813A818B859C85AD85BE85F901808B918BA28BB38B89819A8153
:200A6000FC01148A158A168A178A89819A81FC01108E118E128E138E2E960FB6F894DEBFA9
:200A80000FBECDBFDF91CF911F910F91FF90EF90DF90CF900895CF92DF92EF92FF920F93DE
:200AA0001F93CF93DF93CDB7DEB72E970FB6F894DEBF0FBECDBF9A8389834B835C836D83C5
:200AC0007E830F83188729873A87CB86DC86ED86FE8629813A818B819C81AD81BE81F901D4
:200AE00080879187A287B38729813A818F819885A985BA85F90184879587A687B78729813F
:200B00003A818B859C85AD85BE85F901808B918BA28BB38B2E960FB6F894DEBF0FBECDBFDD
:200B2000DF91CF911F910F91FF90EF90DF90CF900895CF93DF9300D000D000D0CDB7DEB7BF
:200B40009A8389834B835C836D837E8329813A818B819C81AD81BE81F901848B958BA68B79
:200B6000B78B26960FB6F894DEBF0FBECDBFDF91CF910895CF93DF9300D000D000D0CDB7FB
:200B8000DEB79A8389834B835C836D837E8329813A818B819C81AD81BE81F901808F918FD5
:200BA000A28FB38F26960FB6F894DEBF0FBECDBFDF91CF910895AF92BF92CF92DF92EF926D
:200BC000FF920F931F93CF93DF93CDB7DEB766970FB6F894DEBF0FBECDBF9A8B898B4B8BF0
:200BE0005C8B6D8B7E8B89899A89FC0120853185428553858B899C89AD89BE89BC01CD01A0
:200C00000E948615DC01CB018D839E83AF83B88789899A89FC01E488F588068917898989F0
:200C20009A89FC0184899589A689B78922273327A901281B390B4A0B5B0B89899A89FC0139
:200C4000A480B580C680D7808B899C89AD89BE898A0D9B1DAC1DBD1DBC01CD010E94D912DE
:200C6000DC01CB0129893A89F90184839583A683B78389899A89FC012481358146815781AE
:200C800089899A89FC0184859585A685B785BC01CD010E948615DC01CB0189879A87AB87C4
:200CA000BC8789899A89FC0120813181428153818B899C89AD89BE89281B390B4A0B5B0BDD
:200CC00089899A89FC0180899189A289B389BC01CD010E948615DC01CB018D879E87AF8778
:200CE000B88B29893A898B899C89AD89BE89F90180839183A283B3832D813E814F81588500
:200D000089859A85AB85BC85280F391F4A1F5B1F8D859E85AF85B889820F931FA41FB51F3F
:200D200089839A83AB83BC8389819A81AB81BC81BB2334F589819A81AB81BC81B095A09580
:200D4000909581959F4FAF4FBF4F29893A89F901208D318D428D538D022E04C0B595A7955B
:200D6000979587950A94D2F7B095A095909581959F4FAF4FBF4F89839A83AB83BC8318C0A7
:200D800089899A89FC01808D918DA28DB38D9C0189819A81AB81BC81022E04C0B595A795E2
:200DA000979587950A94D2F789839A83AB83BC8389819A81AB81BC81BC01CD0166960FB614
:200DC000F894DEBF0FBECDBFDF91CF911F910F91FF90EF90DF90CF90BF90AF900895CF9308
:200DE000DF9300D0CDB7DEB79A83898389819A810E94CD1289819A81FC01108211821282EE
:200E0000138289819A81FC01148215821682178289819A81FC011086118612861386898133
:200E20009A81FC01148615861686178689819A81FC01108A118A128A138A89819A81FC017A
:200E4000148A158A168A178A0F900F90DF91CF9108950F931F93CF93DF93CDB7DEB72A9767
:200E60000FB6F894DEBF0FBECDBF9A8389834B835C836D837E830F83188729873A87298118
:200E80003A818B819C81AD81BE81F90180879187A287B38729813A818F819885A985BA8586
:200EA000F90184879587A687B7872A960FB6F894DEBF0FBECDBFDF91CF911F910F910895E2
:200EC0000F931F93CF93DF93CDB7DEB72A970FB6F894DEBF0FBECDBF9A8389834B835C83F3
:200EE0006D837E830F83188729873A8729813A818B819C81AD81BE81F901808B918BA28B16
:200F0000B38B29813A818F819885A985BA85F901848B958BA68BB78B2A960FB6F894DEBF4A
:200F20000FBECDBFDF91CF911F910F910895EF92FF920F931F93CF93DF93CDB7DEB7AE9703
:200F40000FB6F894DEBF0FBECDBF9AA789A74BA75CA76DA77EA71D821E821F82188619868E
:200F60001A861B861C861D861E861F86188A198A1A8A1B8A1C8A89A59AA5FC0180859185E9
:200F8000A285B3850097A105B10559F089A59AA5FC0180859185A285B3858D839E83AF836F
:200FA000B88789A59AA5FC0184859585A685B7850097A105B10591F089A59AA5FC01848517
:200FC0009585A685B785B095A095909581959F4FAF4FBF4F89879A87AB87BC8789A59AA5CE
:200FE000FC0180899189A289B3890097A105B10559F089A59AA5FC0180899189A289B3893A
:201000008D879E87AF87B88B89A59AA5FC0184899589A689B7890097A105B10591F089A578
:201020009AA5FC0184899589A689B789B095A095909581959F4FAF4FBF4F898B9A8BAB8BBC
:20104000BC8B89A59AA5FC0184819581A681B7818D8B9E8BAF8BB88F89A59AA5FC01808138
:201060009181A281B381898F9A8FAB8FBC8F2BA53CA54DA55EA5898D9A8DAB8DBC8D790163
:201080008A01E81AF90A0A0B1B0BD801C7018D8F9E8FAF8FB8A38D8D9E8DAF8DB8A11816FA
:2010A00019061A061B060CF077C089899A89AB89BC890097A105B10509F46EC029893A895C
:2010C0004B895C8989899A89AB89BC89BC01CD010E948615DC01CB01BB231CF40396A11DF3
:2010E000B11DB595A79597958795B595A795979587957C018D012D8D3E8D4F8D58A180E0C1
:2011000090E0DC01821B930BA40BB50B880F991FAA1FBB1F9C01AD0189899A89AB89BC89ED
:20112000BC01CD010E948615DC01CB018E0D9F1DA01FB11FBC01CD010E94D00A9B01AC0108
:2011400089899A89AB89BC89BB231CF40196A11DB11DB595A79597958795820F931FA41FFC
:20116000B51F89A39AA3ABA3BCA329A13AA14BA15CA18D819E81AF81B885281739074A078D
:201180005B070CF091C089A19AA1ABA1BCA18D839E83AF83B88788C08D8D9E8DAF8DB8A1CE
:2011A000BB230CF082C08D859E85AF85B8890097A105B10509F479C02D853E854F85588916
:2011C0008D859E85AF85B889BC01CD010E948615DC01CB01BB231CF40396A11DB11DB59597
:2011E000A79597958795B595A795979587957C018D012D8D3E8D4F8D58A180E090E0DC018B
:20120000821B930BA40BB50B880F991FAA1FBB1F9C01AD018D859E85AF85B889BC01CD01B2
:201220000E948615DC01CB018E0D9F1DA01FB11FBC01CD010E94D00ADC01CB01222733278F
:20124000A901281B390B4A0B5B0B8D859E85AF85B889BB231CF40196A11DB11DB595A79561
:201260009795879579018A01E81AF90A0A0B1B0BD801C7018DA39EA3AFA3B8A72DA13EA171
:201280004FA158A589859A85AB85BC8582179307A407B50754F48DA19EA1AFA1B8A58987B7
:2012A0009A87AB87BC8701C000002D893E894F89588D8D819E81AF81B885281739074A0733
:2012C0005B0784F58D859E85AF85B8890097A105B10509F461C02D813E814F8158858D8948
:2012E0009E89AF89B88D281B390B4A0B5B0B8D859E85AF85B88982179307A407B5070CF0C8
:201300004BC02D893E894F89588D8D859E85AF85B889820F931FA41FB51F8D839E83AF83A1
:20132000B8873AC02D893E894F89588D8D819E81AF81B88582179307A407B5076CF5898993
:201340009A89AB89BC890097A105B10529F12D813E814F8158858D899E89AF89B88D281BCD
:20136000390B4A0B5B0B89899A89AB89BC89281739074A075B0784F42D893E894F89588DDC
:2013800089899A89AB89BC89820F931FA41FB51F8D839E83AF83B8872D893E894F89588DE9
:2013A00089859A85AB85BC8582179307A407B50784F589899A89AB89BC890097A105B105DB
:2013C00009F461C029853A854B855C858D899E89AF89B88D281B390B4A0B5B0B89899A89A0
:2013E000AB89BC89281739074A075B070CF04BC02D893E894F89588D89899A89AB89BC8953
:20140000820F931FA41FB51F89879A87AB87BC873AC02D893E894F89588D89859A85AB85BB
:20142000BC85281739074A075B076CF58D859E85AF85B8890097A105B10529F129853A85B4
:201440004B855C858D899E89AF89B88D281B390B4A0B5B0B8D859E85AF85B8898217930702
:20146000A407B50784F42D893E894F89588D8D859E85AF85B889820F931FA41FB51F8987BF
:201480009A87AB87BC872D8D3E8D4F8D58A18D819E81AF81B88582179307A407B507CCF468
:2014A000298D3A8D4B8D5C8D8D819E81AF81B885820F931FA41FB51F89839A83AB83BC83E4
:2014C0008D819E81AF81B8858D8B9E8BAF8BB88F3EC02D8D3E8D4F8D58A189859A85AB85FB
:2014E000BC85281739074A075B07CCF4298D3A8D4B8D5C8D89859A85AB85BC85820F931F9A
:20150000A41FB51F89839A83AB83BC8389859A85AB85BC858D8B9E8BAF8BB88F18C0298DB0
:201520003A8D4B8D5C8D8D8D9E8DAF8DB8A1820F931FA41FB51F89839A83AB83BC838D8DBF
:201540009E8DAF8DB8A18D8B9E8BAF8BB88F29A53AA58D899E89AF89B88DF9018483958389
:20156000A683B78329A53AA589819A81AB81BC81F90180839183A283B38389819A81AB8110
:20158000BC81BC01CD01AE960FB6F894DEBF0FBECDBFDF91CF911F910F91FF90EF9008952D
:2015A000EF92FF920F931F93CF93DF93CDB7DEB72C970FB6F894DEBF0FBECDBF69877A87DD
:2015C0008B879C8789859A85AB85BC8589839A83AB83BC8389859A85AB85BC85BB231CF416
:2015E0000196A11DB11DB595A795979587958D839E83AF83B88729C08D819E81AF81B885D5
:2016000089839A83AB83BC8389859A85AB85BC8529813A814B815C81BC01CD010E94AA159C
:2016200089819A81AB81BC81820F931FA41FB51FBB231CF40196A11DB11DB595A79597957F
:2016400087958D839E83AF83B8872D813E814F81588589819A81AB81BC8179018A01E81A1D
:20166000F90A0A0B1B0BD801C70182309105A105B105ACF429813A814B815C818D819E810C
:20168000AF81B88579018A01E81AF90A0A0B1B0BD801C70182309105A105B10514F081E0EE
:2016A00001C080E0882309F0A7CF8D819E81AF81B885BC01CD012C960FB6F894DEBF0FBE4D
:2016C000CDBFDF91CF911F910F91FF90EF9008958FE590E0FC0110810E9475130E949D13C5
:2016E0000E943B138FE590E0FC01108318958FE590E0FC0110810E94BA130E94E2130E94BF
:201700003B138FE590E0FC01108318958FE590E0FC0110810E94BA130E94FF130E943B13D5
:201720008FE590E0FC01108318958FE590E0FC0110810E94BA130E941C140E943B138FE571
:2017400090E0FC01108318958FE590E0FC0110810E94BA130E9439140E943B138FE590E038
:20176000FC01108318958FE590E0FC0110810E9475130E9456140E943B138FE590E0FC01B3
:20178000108318958FE590E0FC0110810E94DB140E94F3140E943B138FE590E0FC011083F9
:2017A00018958FE590E0FC0110810E94DB140E9410150E943B138FE590E0FC0110831895A1
:2017C0008FE590E0FC0110810E94DB140E942D150E943B138FE590E0FC0110831895EF9290
:2017E000FF921F93CF93DF93CDB7DEB766970FB6F894DEBF0FBECDBF80915303811107C0B5
:201800008BE593E00E94CB1481E08093530360E856E09E01295E3F4F6C871D861E86E8E066
:20182000F1E0DE015196852F01900D928A95E1F7FE0171960F2EFCE0EF2EF12CF02DEC0EC6
:20184000FD1E40E081919191DC019C91D7018D917D018923482BE217F307A1F74423E1F2B7
:201860001CB180915303811107C08BE593E00E94CB1481E08093530360E256E09E01245F13
:201880003F4F69831A821B82E8E0F1E0DE011696852F01900D928A95E1F7FE013696EE24B9
:2018A000E394F12CEC0EFD1E40E081919191DC019C91D7018D917D018923482BE217F3079B
:2018C000A1F74423F1F21CB91F3609F4B0C078F4143609F46DC020F41D3009F0D0C012C0F3
:2018E0001C3609F4B8C01D3609F0C9C08CC0113709F440C008F473C0133729F11A3709F0DE
:20190000BEC003C010922D03C4C08091000190910101A0910201B0910301B095A0959095E3
:2019200081959F4FAF4FBF4F8093360390933703A0933803B093390388E290E090933D03C4
:2019400080933C03A6C08091000190910101A0910201B09103018093360390933703A09345
:201960003803B093390388E290E090933D0380933C038FC08091040190910501A09106015A
:20198000B0910701B095A095909581959F4FAF4FBF4F8093320390933303A0933403B09301
:2019A000350388E290E090933B0380933A0371C08091040190910501A0910601B091070175
:2019C0008093320390933303A0933403B093350388E290E090933B0380933A035AC08091CB
:2019E000000190910101A0910201B09103010596A11DB11D8093000190930101A0930201B4
:201A0000B093030146C08091000190910101A0910201B09103010597A109B10980930001B7
:201A200090930101A0930201B093030132C08091040190910501A0910601B09107010596B9
:201A4000A11DB11D8093040190930501A0930601B09307011EC08091040190910501A091E8
:201A60000601B09107010597A109B1098093040190930501A0930601B09307010AC0E2E3C1
:201A8000F3E01082118212821382148215821682178266960FB6F894DEBF0FBECDBFDF9114
:201AA000CF911F91FF90EF900895EF92FF920F931F93CF93DF93CDB7DEB7C254D1090FB663
:201AC000F894DEBF0FBECDBFF894909331038093300380915303811107C08BE593E00E9416
:201AE000CB1481E08093530389E290E09DA38CA3E0E9F0E0FFA3EEA387E689B910821F8A3D
:201B0000188E86E0898FE8E0F1E0DE015C9601900D928A95E1F7FE017796CE014C969E01B4
:201B2000265E3F4F4191DC016D917D91CD01DB015C91452B4C93E217F307A1F71AA61BA6E6
:201B40001CA686E0E8E0F1E0DE019F9601900D928A95E1F7FE01BA96CE018F969E01235D27
:201B60003F4F4191DC016D917D91CD01DB015C91452B4C93E217F307A1F71DAA80E18EAB4A
:201B80001FAA18AE88E089AF1AAE86E0E8E0F1E0DE01DD9601900D928A95E1F7FE01F89649
:201BA0009E012B5C3F4FCE01CD96AE01455C5F4F6191D9011D919D01DC01ED90FD90CD0174
:201BC000D7017C91612B672B6C93E417F50781F780915C03811107C084E693E00E945513E4
:201BE00081E080935C0381E083BF12BE80915C03811107C084E693E00E94551381E080937B
:201C00005C0383B783BF83B7826083BF80915303811107C08BE593E00E94CB1481E08093F3
:201C2000530380913F03811103C081E080933F038FEE9BE0909348038093470380915C03BD
:201C4000811107C084E693E00E94551381E080935C0380914903811103C081E080934903FF
:201C600089E490E1909352038093510380915C03811107C084E693E00E94551381E0809383
:201C80005C0380914903811107C0109252031092510381E08093490387B7816087BF80910C
:201CA0005303811107C08BE593E00E94CB1481E08093530380913F03811107C010924803AE
:201CC0001092470381E080933F031C8680E88D871E8686E0E8E0F1E0DE01519601900D92AB
:201CE0008A95E1F7FE013C96CE0141969E01215F3F4F4191DC016D917D91CD01DB015C9177
:201D0000452B4C93E217F307A1F781E080932D03789480912D03882341F080E090E00E94AA
:201D2000DA0380912D038111F8CFE2E3F3E010821182128213821482158216821782EAE31B
:201D4000F3E0118210821382128280915303811107C08BE593E00E94CB1481E08093530374
:201D600060E256E09E01245F3F4F69831A821B82E8E0F1E0DE011696852F01900D928A95EF
:201D8000E1F7FE0136968E010F5F1F4F40E081919191DC019C91D8018D918D018923482B33
:201DA000E217F307A1F7442301F38AE08CB9CE5BDF4F0FB6F894DEBF0FBECDBFDF91CF9120
:201DC0001F910F91FF90EF900895FC017183608308950F931F93CF93DF93CDB7DEB72A9795
:201DE0000FB6F894DEBF0FBECDBF8B01BC01CE0101960E94E50E1D830C8385E0FE013196FE
:201E0000DE01169601900D928A95E1F72E813F81488559856A8570E080E090E02A960FB662
:201E2000F894DEBF0FBECDBFDF91CF911F910F910895FC01718360830895FC01718360831E
:201E40000895FC01718360830895FC017183608308952F923F924F925F926F927F928F926C
:201E60009F92AF92BF92CF92DF92EF92FF920F931F93CF93DF93CDB7DEB73C012A011901F8
:201E80000E94250FF301F382E282D582C482B782A6821086118612861386958684868D8908
:201EA0009E89978786878F89988D918B808B128A138A148A158A578A468A318E208E138F36
:201EC000028FC301DF91CF911F910F91FF90EF90DF90CF90BF90AF909F908F907F906F90C7
:201EE0005F904F903F902F9008952F923F924F925F926F927F928F929F92AF92BF92CF922E
:201F0000DF92EF92FF920F931F93CF93DF93CDB7DEB73C012A0119010E94250FF301F3823C
:201F2000E282D582C482B782A6821086118612861386958684868D899E89978786878F893C
:201F4000988D918B808B128A138A148A158A578A468A318E208E138F028FC301DF91CF91DA
:201F60001F910F91FF90EF90DF90CF90BF90AF909F908F907F906F905F904F903F902F90EF
:201F800008956F927F928F929F92AF92BF92CF92DF92EF92FF920F931F93CF93DF93FC01A5
:201FA00063807480D3011396CD91DC911497088119812A813B81402F512F622F732F078123
:201FC0001085218532856A017B01C01AD10AE20AF30AC581D6818B819C81DC010D911D919B
:201FE0002D913C91402F512F622F732F0385148525853685DB01CA01801B910BA20BB30B65
:20200000B701A601480F591F6A1F7B1F8788908CA18CB28C480D591D6A1D7B1D478B508F3E
:20202000618F728FC81AD90AEA0AFB0A438D548D658D768DC40ED51EE61EF71EC38ED48EBA
:20204000E58EF68ED30113968D919C911497DC014D915D916D917C914783508761877287E0
:20206000AB81BC814D915D916D917C914387548765877687DF91CF911F910F91FF90EF9064
:20208000DF90CF90BF90AF909F908F907F906F9008952F923F924F925F926F927F928F9254
:2020A0009F92AF92BF92CF92DF92EF92FF920F931F93CF93DF93CDB7DEB7A6970FB6F894AA
:2020C000DEBF0FBECDBF80912E0390912F036FE070E00E949615892B09F08CC18091320349
:2020E00090913303A0913403B09135038F8B988FA98FBA8F8091360390913703A0913803D5
:20210000B09139038B8F9C8FAD8FBE8F0091300310913103D8015A96ED90FC905B97C7014F
:202120000E94C10FF701638D748D858D968D23893489458956890E94AA15A22EB32EC42EF5
:20214000D52EF7018789908DA18DB28DBB231CF40196A11DB11DBC01CD01959587957795FC
:202160006795D7011F962D913D914D915C9152970E94AA15F8012087318742875387A28A0E
:20218000B38AC48AD58A4F89588D698D7A8D828193810E9497076B017C01D80118964D91F6
:2021A0005D916D917C911B9714968D919C9115970E946E0436014701661A770A880A990A0A
:2021C000B401A301D80116968D919C9117970E94DB056B017C014B8D5C8D6D8D7E8DF801FE
:2021E000848595850E9497072B013C01D80152964D915D916D917C9155971E968D919C9190
:202200001F970E946E0453014201861A970AA80AB90AB501A401D80150968D919C9151975A
:202220000E94DB05462F572F682F792F772324F44F5F5F4F6F4F7F4F3A014B01959487947D
:20224000779467946BA27CA28DA29EA2D8015696AD90BC905797D5011E96ED91FC911F9757
:202260000380F481E02D80819181A281B381F50180879187A287B387B401A3014C0D5D1D4B
:202280006E1D7F1D828193810E9497071B012C01D50118964D915D916D917C911B971496C0
:2022A0008D919C9115970E946E0442013101661A770A880A990AB401A301D50116968D916F
:2022C0009C9117970E94DB05462F572F682F792F4138BFEF5B076B077B0724F441E85FEF5B
:2022E0006FEF7FEF403851056105710524F04FE750E060E070E0F5018089882349F04195A5
:202300000484F585E02D0280F381E02D408307C00484F585E02D0280F381E02D4083F80153
:20232000008D118DD8011E96ED91FC911F970380F481E02D80819181A281B381F8018087B5
:202340009187A287B387B701A6016BA07CA08DA09EA04619570968097909828193810E94A6
:2023600097076B017C01D80118964D915D916D917C911B9714968D919C9115970E946E0411
:2023800036014701661A770A880A990AB401A301D80116968D919C9117970E94DB05462FBA
:2023A000572F682F792F4138BFEF5B076B077B0724F441E85FEF6FEF7FEF4038510561054C
:2023C000710524F04FE750E060E070E0F8018089882349F041950484F585E02D0280F381BC
:2023E000E02D408307C00484F585E02D0280F381E02D408380912E0390912F030196909322
:202400002F0380932E0380913A0390913B03892BD1F180915303811107C08BE593E00E94DE
:20242000CB1481E08093530360E256E09E01295E3F4F6C871D861E86E8E0F1E0DE0151962E
:20244000852F01900D928A95E1F7FE0171968E01045F1F4F40E081919191DC019C91D80104
:202460008D918D018923482BE217F307A1F7442301F384E68CB9EAE3F3E0808191810197B1
:202480009183808308C01092320310923303109234031092350380913C0390913D03892B96
:2024A000D1F180915303811107C08BE593E00E94CB1481E08093530360E256E09E01245FD2
:2024C0003F4F69831A821B82E8E0F1E0DE011696852F01900D928A95E1F7FE0136968E01F0
:2024E0000F5F1F4F40E081919191DC019C91D8018D918D018923482BE217F307A1F744230C
:2025000001F381E68CB9EAE3F3E08281938101979383828308C01092360310923703109290
:20252000380310923903A6960FB6F894DEBF0FBECDBFDF91CF911F910F91FF90EF90DF9062
:20254000CF90BF90AF909F908F907F906F905F904F903F902F900895CF93DF9300D000D0C5
:20256000CDB7DEB79A8389837C836B8381E080933E0381E00F900F900F900F90DF91CF91CA
:202580000895CF93DF93CDB7DEB70E94E70310923E030000DF91CF910895CF93DF9300D031
:2025A000CDB7DEB79A8389830F900F90DF91CF910895EF92FF920F931F93CF93DF93CDB770
:2025C000DEB72C970FB6F894DEBF0FBECDBF69837A838B839C832D833E834F835887E986B5
:2025E000FA860B871C8729813A814B815C8189859A85AB85BC8582179307A407B5072CF4C0
:2026000089859A85AB85BC8516C029813A814B815C818D819E81AF81B885281739074A07CE
:202620005B072CF48D819E81AF81B88504C089819A81AB81BC81BC01CD012C960FB6F8948E
:20264000DEBF0FBECDBFDF91CF911F910F91FF90EF900895CF93DF9300D0CDB7DEB79A83DF
:20266000898389819A81FC01118210820F900F90DF91CF910895CF93DF9300D0CDB7DEB79F
:202680009A83898389819A81FC0180819181009739F089819A81FC0180819181FC0109954C
:2026A0000F900F90DF91CF910895CF93DF9300D0CDB7DEB79A83898389819A810E9473143B
:2026C0000F900F90DF91CF910895CF93DF9300D0CDB7DEB79A83898389819A810E947F140F
:2026E0000F900F90DF91CF910895CF93DF93CDB7DEB78CE593E0FC018081882349F484E60E
:2027000093E00E9455138CE593E021E0FC01208384E693E0DF91CF910895CF93DF9300D0C9
:20272000CDB7DEB79A83898389819A810E942A130F900F90DF91CF910895CF93DF9300D004
:20274000CDB7DEB79A83898389E493E0FC018081882349F481E593E00E948D1389E493E076
:2027600021E0FC01208381E593E00F900F90DF91CF910895CF93DF93CDB7DEB785E693E069
:20278000FC018081882349F487E993E00E94651385E693E021E0FC01208387E993E0DF9184
:2027A000CF910895CF93DF9300D0CDB7DEB79A83898389819A810E942A130F900F90DF9184
:2027C000CF910895CF93DF9300D0CDB7DEB79A8389838DE693E0FC018081882349F48EE9D3
:2027E00093E00E94D2138DE693E021E0FC0120838EE993E00F900F90DF91CF910895CF9361
:20280000DF9300D0CDB7DEB79A83898385E793E0FC018081882349F48CE993E00E948B1446
:2028200085E793E021E0FC0120838CE993E00F900F90DF91CF910895CF93DF9300D0CDB75D
:20284000DEB79A8389838DE793E0FC018081882349F48AE993E00E949B148DE793E021E0CE
:20286000FC0120838AE993E00F900F90DF91CF910895CF93DF9300D0CDB7DEB79A83898341
:2028800085E893E0FC018081882349F488E993E00E94AB1485E893E021E0FC01208388E93B
:2028A00093E00F900F90DF91CF910895CF93DF9300D0CDB7DEB79A8389838DE893E0FC012F
:2028C0008081882349F485E993E00E94BB148DE893E021E0FC01208385E993E00F900F9015
:2028E000DF91CF910895CF93DF9300D0CDB7DEB79A8389830F900F90DF91CF910895CF9378
:20290000DF9300D0CDB7DEB79A8389830F900F90DF91CF910895CF93DF9300D0CDB7DEB7CB
:202920009A83898389819A810E942A130F900F90DF91CF910895CF93DF9300D0CDB7DEB702
:202940009A83898389819A810E942A130F900F90DF91CF910895CF93DF9300D0CDB7DEB7E2
:202960009A83898389819A810E942A130F900F90DF91CF910895CF93DF9300D0CDB7DEB7C2
:202980009A83898389819A810E942A130F900F90DF91CF910895CF93DF9300D0CDB7DEB7A2
:2029A0009A83898389819A810E944A150F900F90DF91CF910895CF93DF93CDB7DEB783E5C8
:2029C00093E0FC018081882349F48BE593E00E94CB1483E593E021E0FC0120838BE593E0DB
:2029E000DF91CF910895CF93DF9300D0CDB7DEB79A8389838FE393E0FC018081882349F4B9
:202A000087E493E00E9456158FE393E021E0FC01208387E493E00F900F90DF91CF910895BC
:202A2000CF93DF9300D0CDB7DEB79A83898380EA93E0FC018081882349F482EB93E00E946B
:202A4000661580EA93E021E0FC01208382EB93E00F900F90DF91CF910895CF93DF9300D04E
:202A6000CDB7DEB79A83898388EA93E0FC018081882349F480EB93E00E94761588EA93E059
:202A800021E0FC01208380EB93E00F900F90DF91CF910895CF93DF9300D0CDB7DEB79A8332
:202AA00089830F900F90DF91CF910895CF93DF9300D0CDB7DEB79A83898389819A810E94B2
:202AC0002A130F900F90DF91CF910895CF93DF9300D0CDB7DEB79A83898389819A810E9461
:202AE0002A130F900F90DF91CF910895CF93DF9300D0CDB7DEB79A83898389819A810E9441
:202B00002A130F900F90DF91CF910895DB018F939F930E94C615BF91AF91A29F800D911D14
:202B2000A39F900DB29F900D1124089597FB072E16F4009407D077FD09D00E94D11507FCE2
:202B400005D03EF4909581959F4F0895709561957F4F0895052E97FB16F4009407D057FDB4
:202B60000DD00E94E51507FC09D07EF490958095709561957F4F8F4F9F4F08955095409568
:202B8000309521953F4F4F4F5F4F08950E940B16A59F900DB49F900DA49F800D911D1124FC
:202BA0000895AA1BBB1B51E107C0AA1FBB1FA617B70710F0A61BB70B881F991F5A95A9F755
:202BC00080959095BC01CD010895A1E21A2EAA1BBB1BFD010DC0AA1FBB1FEE1FFF1FA217DB
:202BE000B307E407F50720F0A21BB30BE40BF50B661F771F881F991F1A9469F76095709538
:202C0000809590959B01AC01BD01CF0108950790F691E02D0994A29FB001B39FC001A39FF7
:202C200001D0B29F700D811D1124911D0895F894FFCF28000000500000002B002A0095001B
:202C4000FFFF1000008040004000070C196C6566745F656E636F6465720072696768745FD3
:202C6000656E636F646572006C6566745F6D6F746F720072696768745F6D6F746F72006C1F
:202C80006566745F636F6E74726F6C6C6572006F646F6D6574657200726F626F745F636F9C
:202CA0006E74726F6C6C657200726F626F745F73706565645F636F6E74726F6C6C65720069
:202CC0000000000000000000000000000000000000000000000000000000000000000000F4
:202CE0000000000000000000000000000000000000000000000000000000000000000000D4
:00000001FF
